:100000000C9448040C948F040C948F040C942C10C2
:100010000C948F040C948F040C948F040C948F0414
:100020000C948F040C948F040C945A200C942E2161
:100030000C94FA1B0C948F040C948F040C948F0472
:100040000C948F040C948F040C948F040C948F04E4
:100050000C948F040C94511C0C948F040C948F04FA
:100060000C948F040C948F040C948F040C948F04C4
:100070000C948F040C948F040C948F040C948F04B4
:100080000C948F040C948F040C948F040C948F04A4
:100090000C948F040C948F040C948F040C948F0494
:1000A0000C948F040C948F040C948F0435001E0064
:1000B0001F002000210022002B0014001A0008005D
:1000C00015001700290004001600070009000A00A7
:1000D000E0001D001B000600190005000000E20002
:1000E000E30001512C002F002E00270026002500E0
:1000F000240023002D00130012000C0018001C0027
:10010000340033000F000E000D000B00E500380036
:10011000370036001000110000002A002A000251AA
:100120002800300001000100010001000100010071
:10013000BD00BE003C003D003E003F0029001E0205
:100140001F02200221022202010001000100010021
:100150000100010000000100010001000100010098
:10016000010001000100010001000100A900AA0036
:10017000A800AB00AE00AC00350227022602250223
:1001800024022302310230022F022E022D0200002F
:100190000000010001000100010001000100010058
:1001A000010001000100010035001E001F002000B9
:1001B000210022003A003B003C003D003E003F0091
:1001C000400041004200430044004500000001009F
:1001D00001000100010001002A00010001000100EE
:1001E0000100010001002700260025002400230053
:1001F000000000004F00520051005000310030005C
:100200002F002E002D002E02000001000100010031
:1002100001000100000000000000000000000000DC
:1002200000000000000000000000000000000000CE
:1002300000000000000000000000000000000000BE
:1002400000000000000001000100010001000000AA
:10025000000000000000000000000000000000009E
:10026000000000000000000000000000000000008E
:10027000000000000000000000000000000000007E
:1002800000000100010001000100000000AE00AF0D
:1002900000DA02818FD9F1DB40A4A62EAF00A0C006
:1002A00000A1C800AED580A81FD300408D14200047
:1002B0000000000000003E5B4F5B3E003E6B4F6B5A
:1002C0003E001C3E7C3E1C00183C7E3C18001C5727
:1002D0007D571C001C5E7F5E1C0000183C1800004F
:1002E000FFE7C3E7FF00001824180000FFE7DBE783
:1002F000FF0030483A060E00262979292600407F63
:1003000005050700407F05253F005A3CE73C5A00A1
:100310007F3E1C1C0800081C1C3E7F0014227F220C
:1003200014005F5F005F5F0006097F017F000066C9
:1003300089956A0060606060600094A2FFA29400EA
:1003400008047E04080010207E20100008082A1CE3
:100350000800081C2A0808001E10101010000C1EAF
:100360000C1E0C0030383E383000060E3E0E0600E3
:1003700000000000000000005F0000000007000710
:100380000000147F147F1400242A7F2A12002313F4
:100390000864620036495620500000080703000038
:1003A000001C224100000041221C00002A1C7F1C6E
:1003B0002A0008083E080800008070300000080885
:1003C0000808080000006060000020100804020017
:1003D0003E5149453E0000427F4000007249494974
:1003E00046002141494D33001814127F1000274563
:1003F000454539003C4A494931004121110907006E
:10040000364949493600464949291E000000140072
:1004100000000040340000000008142241001414C1
:1004200014141400004122140800020159090600A6
:100430003E415D594E007C1211127C007F494949B2
:1004400036003E41414122007F4141413E007F490B
:10045000494941007F09090901003E4141517300AA
:100460007F0808087F0000417F4100002040413F95
:1004700001007F08142241007F40404040007F027D
:100480001C027F007F0408107F003E4141413E0076
:100490007F09090906003E4151215E007F091929A3
:1004A000460026494949320003017F0103003F40CD
:1004B00040403F001F2040201F003F4038403F0089
:1004C0006314081463000304780403006159494D60
:1004D0004300007F41414100020408102000004118
:1004E00041417F00040201020400404040404000BE
:1004F0000003070800002054547840007F2844443B
:100500003800384444442800384444287F00385494
:100510005454180000087E0902001824241C780096
:100520007F080404780000447D4000002040403DE6
:1005300000007F102844000000417F4000007C0440
:10054000780478007C080404780038444444380077
:100550007C1824241800182424187C007C08040427
:10056000080048545454240004043F4424003C40F0
:1005700040207C001C2040201C003C4030403C00BF
:100580004428102844004C9090907C004464544CC3
:1005900044000008364100000000770000000041E0
:1005A000360800000201020402003C2623263C001B
:1005B000000000000080808080000000000080E0DB
:1005C00070180C1830E080000010F890103078306F
:1005D00010B8FC3810000000000000F8FCF8000023
:1005E00000000000000000000000001C9C1C000037
:1005F0000000F8FCF80000000000001CFCF8C0003F
:10060000000000000080E0F87C1C000000F0FCFC12
:10061000FC1C1C1C1C1C1C1C1C000000000000C03E
:10062000F0F8381C1C1C1C1C1C3CF8F0E000E0F02E
:10063000F0F0E0ECEEF7F37020007C7C7C7E007E36
:100640007E7E7F7F7F000080C0E07E5B4F5BFEC0D0
:100650000000C000DCD7DEDEDED7DC00C00000001A
:10066000000000000000000000000000000000008A
:1006700000000000000FBCE0818181838382870C31
:10068000183060C000001FFE90B9FFBB91983C1865
:1006900011133F1100000000000000FFFFFF0000E9
:1006A0000000000000000000000000FFFFFF00004D
:1006B0000000FFFFFF0000000000000000030F7FAC
:1006C000F8E080F0FC3F0F0100000000003F3F3FDA
:1006D0001C1C1C1C1C3C78F8F0E08000000000C3CF
:1006E000E7FF7E3C3878787070F8FFDF87000F1FD7
:1006F0003F7F7F7F7F7F3F1E0C001F1F1F3F003FFC
:100700003F3F7F7F7F00307B7F7830202030787FB5
:100710003B0003000F7F0F0F0F7F0F00030000004F
:1007200000000000000000000000000000000000C9
:10073000183C24666341C18180808080808081C1B3
:100740004162386C4CC68181808080808081C14349
:1007500062361C1800000000000000FFFFFFC0C050
:10076000C0C0C0C0C0C0C0800000007FFF7F0000CC
:1007700000007FFFFFC080000000E0E0C0C0C0E0DC
:10078000F97F1F0700000000000000000070F0E08B
:10079000E0C0C0C0C0E0F0F87F3F0F0000000F3F96
:1007A0007FF9E0E0C0C0C0C0C0E0F97F3F1F00009B
:1007B0000000000000000000000000000000000039
:1007C0000000000000000000000000000000000029
:1007D0000000000000000000000000000000000019
:1007E0000000000000000000000000000000000009
:1007F0000403300000000E034C0069006C00790017
:1008000035003800000010036C0069006C006900BE
:1008100075006D0073000000040309040902220042
:10082000010100A0FA0904000001030101000921EF
:10083000110100012240000705810308000A12018E
:10084000100100000008D8042DEB00010102030193
:1008500005010906A101050719E029E71500250191
:100860009508750181029501750881010507190038
:1008700029FF150026FF0095067508810005081957
:10088000012905950575019102950175039101C036
:1008900011241FBECFEFDAE0DEBFCDBF04B603FEEA
:1008A00027C08091520590915305A0915405B091B5
:1008B00055058730904BA740B04BD1F410925205AC
:1008C00010925305109254051092550514BE84B72A
:1008D000877F84BF0FB6F894A895809160008861E7
:1008E00080936000109260000FBEE0E0F8E309958D
:1008F00012E0A0E0B1E0E2ECFCE402C005900D9251
:10090000AA30B107D9F725E0AAE0B2E001C01D92F4
:10091000A235B207E1F70E94AC1D0C943B260C9463
:1009200000008091EA029091EB02A091EC02B0915C
:10093000ED0284309105A105B105E1F128F500979C
:10094000A105B10571F169E771E082309105A1055A
:10095000B10549F1BF93AF939F938F9384E991E0E1
:100960009F938F931F9288E18F938BE093E09F93E7
:100970008F930E9423238DB79EB70A960FB6F894E3
:100980009EBF0FBE8DBF13C088309105A105B10574
:1009900029F08E309105A105B105E1F666E871E018
:1009A00002C06DE571E08BE093E00E941C238BE0B8
:1009B00093E008956CE671E0F6CF80E091E0089551
:1009C000CF93C0E28C33910520F4FC01EA54FE4F32
:1009D000C0811F92CF939F938F93FB0180811F92C1
:1009E0008F9381811F928F9385EA91E09F938F93DC
:1009F0001F9288E18F9381E292E09F938F930E94F0
:100A000023238DB79EB70E960FB6F8949EBF0FBEE8
:100A10008DBF80910A0290910B02449761F410926D
:100A20000B0210920A02ECE0F2E080E2819392E085
:100A3000E032F907D9F780910A0290910B02FC018C
:100A4000E45FFD4FC083019690930B0280930A02EE
:100A5000CF91089581E292E008958CE092E00895AC
:100A60000C945405CF93C82F0E941C09811101C01A
:100A7000C2E08C2FCF9108950E941C09882379F041
:100A80000E94910460E00E940B0B0E942A0560E026
:100A90000E940B0B0E942D0560E00C940B0B0E9432
:100AA000DD0460E00C94EF0AFB01228121110E9419
:100AB000E00481E0089581E0089508950C945D05B7
:100AC0001F93CF93DF9300D000D00F92CDB7DEB746
:100AD00049835A836B833091890289819A813111CC
:100AE0001DC06623B9F02223A9F00E947819182F9F
:100AF000682F89819A810E94211969817A81812FC9
:100B00000F900F900F900F900F90DF91CF911F914A
:100B10000C940C060E944F19182FEFCF0E947819E1
:100B200069817A81EDCFFC01262F4081518162815C
:100B3000738184810C946005CF93DF93EC0160E0B6
:100B40000E949305BE01DF91CF910C945E050E9437
:100B5000AF1A811102C00E944C1B0C94CE070C945A
:100B6000D10708950C94B10581E008950C94B40563
:100B7000CF93C82F0E94B2058C2FCF910C94B6054D
:100B800008950E9412150E94C0052FEF84E39CE097
:100B9000215080409040E1F700C000000C94751C8B
:100BA0000F931F93CF93DF93EC0161E00E949305B5
:100BB0008C01BE010E943005882329F1BE01C801C5
:100BC0000E94EE0C8823F9F0BE01C8010E94400D7E
:100BD0008823C9F0BE01C8010E94630E882399F0E2
:100BE0008A81882339F001158CE5180751F00E3DF4
:100BF0001C4579F0CE01DF91CF911F910F910C949C
:100C00005B050E94C10580E0DF91CF911F910F919C
:100C100008950E944C1BF7CF972F70E026E0929F1B
:100C2000600D711D1124FB019CE3899FE00DF11DF6
:100C30001124EE0FFF1FE455FF4F85919491089505
:100C4000CF93DF930E940C060E94F306EC018115FE
:100C500023E5920790F5811532E5930708F096C0D9
:100C600081159042C8F4C11581E0D80788F4C53ACF
:100C7000D10548F4C430D10558F4C130D10541F054
:100C8000D0E0C0E005C0CE01805E91090897C0F7B2
:100C9000CE01DF91CF910895C11591E5D90708F0F4
:100CA00070C0C11520E5D20708F04EC0C11530E470
:100CB000D30730F3DF70D06AEBCF811546E5940798
:100CC000F0F4C11585E5D80708F075C0C11594E5A5
:100CD000D90708F06BC0CE018370992721E030E07E
:100CE00002C0220F331F8A95E2F7C695C69590E29F
:100CF000C99FE0011124C22BD32BDA68C9CF81151B
:100D00002AE5920778F4811539E5930708F05EC06B
:100D1000811548E5940708F4B3CFD82FCC27C06FCE
:100D2000D06AB6CF90568115904208F0A9CF8D2F8A
:100D30008F710E948A0790E0982F882788279F71DB
:100D40009C012C2BE90140C0CE01E4E096958795EB
:100D5000EA95E1F783702C2F26952695237040E2C3
:100D6000249F90011124382B8C2F8370C1E0D0E098
:100D700002C0CC0FDD1F8A95E2F7C22BD32BDC68B3
:100D800087CFDC2FCC27C16FD06A82CF83709927A1
:100D900021E030E002C0220F331F8A95E2F7C695AA
:100DA000C69580E2C89FE0011124E7CFDC2FCC2755
:100DB000C46FD06A6DCF8C2F0E948A07C82FD0E0F5
:100DC000DC2FCC27CC27DF71D06262CF8F700E94DE
:100DD0008A0734E0D695C7953A95E1F7CF709C2FF6
:100DE000EC01D06955CF82389105B1F1B0F481336F
:100DF000910509F475C048F48932910509F469C078
:100E00008A32910509F473C008958533910509F478
:100E100059C08933910501F10895833E9105A9F1E7
:100E200038F4803E9105F9F0823E910549F108952C
:100E3000863E9105A9F1873E9105C9F1843E910551
:100E400019F52091440521FF1FC08091430584FDC1
:100E500014C087EE90E00895209143052370A1F01F
:100E600080EE90E008952091430520FD47C0309129
:100E7000440530FF09C024FF44C090E080E004C076
:100E80002091430522FDF7CF08952091430522FDCF
:100E90003BC03091440530FDE3CF24FFF5CFEDCFCB
:100EA0002091430523FFF0CF24FDE7CFD2CF20913F
:100EB000430523FD2CC03091440531FFEECF84EE75
:100EC00090E008952091430525FFDECF89E290E070
:100ED00008952091430525FFD7CF85E390E008953D
:100EE0002091430526FFD0CF8AE290E0089520911B
:100EF000430526FFC9CF81E390E0089589E390E0A0
:100F0000089583EE90E0089582EE90E0089586EED5
:100F100090E008959091430592FF06C0282F287114
:100F20002830F9F4877F846093FF06C0282F28714A
:100F30002831F1F4877E84612091440520FF06C0AA
:100F4000382F38713830D9F4877F816021FF06C08F
:100F5000282F28712831D1F4877E816194FD877E06
:100F60000895282F24712430F9F68B7F8860DCCF18
:100F7000282F2471243101F78B7E8861DDCF382F33
:100F80003171313019F78E7F8860E0CF282F2171C1
:100F9000213121F78E7E8861E1CF08950C94CD0731
:100FA00008950C94D007E82FF0E0E35DFC4F8081BA
:100FB0000895089580EA8A95F1F7089508950E94AA
:100FC0003A09809140018091400195E0811190E0C3
:100FD0009093380385E0891B80933703A8EFB1E035
:100FE00061E070E08D91E82FE295EF70F0E041A1B3
:100FF0008F709B0101C0220F8A95EAF7922F90957E
:10100000942391A382A1822B82A381E0AD3FB807F4
:1010100049F7A2EFB1E061E070E08D91E82FE29531
:10102000EF70F0E041A18F709B0101C0220F8A9503
:10103000EAF7922F9095942391A382A1822B82A309
:1010400081E0A83FB80749F7E3E2F3E0ADE2B3E09F
:101050008DE293E011921D928E179F07D9F785E0DC
:101060000E94E5080E94A7050C9444090E941C09EF
:101070008823F9F08091370390E0835D9C4F0E94B4
:101080005709811113C0809139028F5F8093390213
:10109000863050F0E0913703F0E0E35DFC4F1082C2
:1010A00011821282138214820C94AF0510923902BD
:1010B000FBCF8091380390E0835D9C4F0E947209C2
:1010C0000C94DE078F929F92AF92BF92CF92DF92E5
:1010D000EF92FF920F931F93CF93DF9388EFA82E89
:1010E00081E0B82E03E213E0912CCC24C394D12CE0
:1010F000F50181915F01C82FC295CF70D0E099A111
:101100008F70760101C0EE0C8A95EAF7892F8E293F
:1011100089A38AA18E2C809488218AA30E94DA0751
:10112000E2EFF1E050E040E020E03191A32FA29502
:10113000AF70B0E090968C9190E03F7002C09595B2
:1011400087953A95E2F780FD3CC08C2D042E01C0B6
:10115000880F0A94EAF7282B4F5F5F4F46305105FE
:1011600021F789A1882289A28AA1E82AEAA2F801A6
:101170008081281741F1208381E0982A0F5F1F4F5B
:10118000FDEFAF16F1E0BF0609F0B2CF6091380372
:1011900070E0635D7C4F292D45E083E293E00E947F
:1011A000E6080E943608892DDF91CF911F910F919B
:1011B000FF90EF90DF90CF90BF90AF909F908F9077
:1011C000089580E0C8CF80E0D8CF0895FF920F93B4
:1011D0001F93CF93DF93F82E092F162FD72FC42FED
:1011E000222349F081E080933C020E942A1C9093C4
:1011F0003B0280933A0280913C028823A1F08091C7
:101200003A0290913B020E94421C069760F0EF2D3B
:10121000F02FA12FBD2FCE0FDF2FD11DEC17FD0713
:1012200041F410923C02DF91CF911F910F91FF90FA
:10123000089581918D93F2CF80913D02811111C06B
:101240008091D80080618093D8008AE18A95F1F777
:1012500000C09091D900892F817090FF82E0809327
:101260003D0281E090913D02913009F080E00895C7
:101270000C941C090E943809809340010E941C09AB
:1012800081110C944B0908950E941C09811102C020
:101290000C945109089561E070E081E491E00C94B0
:1012A000D90F61E070E081E491E00C94E20FCF93FC
:1012B000DF93D82FC92F90E080E00E94BB100097E9
:1012C00079F4ED2FFC2FDC01A15CBD4F2C91219313
:1012D000019685309105B9F781E0DF91CF910895AE
:1012E00080E0FBCF30E020E0FC014191CF01F9012B
:1012F000E15CFD4F40832F5F3F4F25303105A1F763
:101300000895CF92DF92EF92FF920F931F93CF93A6
:10131000DF936C017B0164E670E088E70E94930E26
:10132000EC0197FD12C010E000E0F601E00FF11FA4
:10133000849164E670E00E94EF0EEC01892B29F4A1
:101340000F5F1F4F0E151F0581F70E94720FCE0110
:10135000DF91CF911F910F91FF90EF90DF90CF9091
:101360000895E9E3F3E080E092E0DF019C011D9243
:1013700021503040E1F7F0933E05E0933D058FEFBB
:101380009FEF9093700280936F0208950E94320540
:1013900080936B0280FD0FC080E880936A020E94F8
:1013A0008D0E6DE070E083EA92E00E948109892B46
:1013B00021F080E0089580E2F0CF80916B0263E03D
:1013C00070E081FD26C080EA92E00E948109892BAD
:1013D00081F76DE070E080E992E00E948109892B3D
:1013E00041F70E94361C605A75418F4F9F4F6093A2
:1013F000390570933A0580933B0590933C050E9414
:10140000B10981E080936E0280936D0210926C02AC
:1014100008958DE992E0D9CF20916A0236E0839F4A
:10142000C0011124629F800D911D1124811522E0BD
:10143000920714F090E080E0875C9C4F90933E050B
:1014400080933D05089520913D0530913E0523533D
:10145000334040916A02642F70E0C9010E94EC227F
:10146000481B463010F4240F311D211582E0380747
:1014700010F030E020E0275C3C4F30933E05209395
:101480003D0508951F93CF93DF93162F8A3031F4D3
:1014900081E0DF91CF911F910C94BC0A8D3011F443
:1014A00080E0F7CFC0913D05D0913E0596E0FE016A
:1014B000A4E4B2E001900D929A95E1F7803EC8F065
:1014C00086E0FE0111928A95E9F711111EC0C091C4
:1014D0003D05D0913E0546E050E0BE0184E492E037
:1014E0000E940F23892BF9F4DF91CF911F910C9467
:1014F000230AF6E08F9FB001112460557D4F46E02E
:1015000050E0CE010E940623E0CFE0913D05F0912E
:101510003E059F012A5F3F4F2E173F07C1F2808192
:1015200080958193F9CFC953D340CE0125E096959C
:1015300087952A95E1F721E030E0A90102C0440F28
:10154000551F8A95E2F7CA0140916F0250917002CF
:10155000842B952B259645E0D695C7954A95E1F7BE
:1015600002C0220F331FCA95E2F7822B932B909370
:10157000700280936F02B8CFCF93382FE0913D0572
:10158000F0913E05E953F34020916A02622F70E02A
:10159000CF010E94EC22281B822F332369F066E0E2
:1015A0000E94E022C82FC15010F4CF91089560E04E
:1015B00080E20E94420AF7CF9F01280F311D2115BA
:1015C000324018F080E0F0E0E0E08E0F9F2F911D98
:1015D000875C9C4F90933E0580933D05E6CFFF923C
:1015E0000F931F93CF93DF93EC01F62EFC01019034
:1015F0000020E9F78F0101501109C017D10730F021
:10160000DF91CF911F910F91FF9008956F2D8991D8
:101610000E94420AF2CF0E94EF0A81E00C94BC0AB9
:101620000E94361C605A75418F4F9F4F6093390559
:1016300070933A0580933B0590933C0580916D0231
:10164000811108C062E070E08EE892E00E9481099A
:10165000892B19F080916D02089581E080936D02CD
:10166000F9CF2F923F925F926F927F928F929F92CB
:10167000AF92BF92CF92DF92EF92FF920F931F93A0
:10168000CF93DF9320916F023091700221153105C5
:1016900031F080916C0261E070E0882399F0DF9175
:1016A000CF911F910F91FF90EF90DF90CF90BF905F
:1016B000AF909F908F907F906F905F903F902F9012
:1016C00008958F5F082F10E01B01082E02C0220C26
:1016D000331C0A94E2F7A90142215321452B89F3D7
:1016E00090916B0290FD44C08295880F8076809324
:1016F0004B019801369527953695279520934E01F5
:10170000815E80934C0110924F0124E630E047E067
:1017100050E069E471E088E70E941E0F892B09F010
:10172000BECFA80125E0440F551F2A95E1F780910F
:101730006B0280FD2BC0475C5C4F04E610E020E2AA
:1017400030E060E488E70E94450F892B09F0A7CFBD
:101750000E94100BE101C095D09580916F0290918D
:101760007002C823D923D0937002C0936F0297CF21
:10177000880F880F880F80934B0110924E01895F6C
:1017800080934C0183E080934F01BFCFEAE4F2E005
:1017900080E2DF011D928A95E9F7A6E0B2E002E05F
:1017A00012E08AE0C82E82E0D82E97E0592E7724E6
:1017B00073948D91E80129918E01240F352F311DED
:1017C000275C3C4FE82FF0E0E65BFD4F90E080E0C7
:1017D000652C681A872C082E01C0880C0A94EAF739
:1017E0007901A12CE701B9907E01B820662D6A1914
:1017F0006770962E062E000C770BDB2D01C0DD0FD7
:101800009A94EAF77195619571096770772701C01D
:10181000B6946A95EAF7BD2A6081962E9B2890823D
:10182000A39468E0A612DECF019631968830910528
:1018300079F6CA16DB0609F0BCCF04E610E020E218
:1018400030E04AE452E07DCF80916D02882369F058
:1018500062E070E08CE892E00E948109892B19F027
:1018600080916D02089510926D0280916D0291E059
:10187000892708950F931F9380916E02882301F1A9
:1018800060E080E00E940C0A0E943C050E94310B3F
:1018900080916D028823A1F00E94361C00913905C9
:1018A00010913A0520913B0530913C05601B710B6E
:1018B000820B930B97FD04C01F910F910C94240C85
:1018C0001F910F910895AF92BF92CF92DF92EF9246
:1018D000FF920F931F93CF93DF937C015B01C42F83
:1018E000D22FFC0182818823F9F0409373020E9479
:1018F0002A1C909372028093710280E28C0F8830D0
:1019000008F061C0C77081E001C0880FCA95EAF78E
:10191000DF91CF911F910F91FF90EF90DF90CF90CB
:10192000BF90AF900C94D61210917302141340C064
:1019300080917102909172020E94421C6C01B70169
:10194000C5010E947617C816D90690F5C0E2CD0FE2
:101950001D17B9F080E2810F883040F4177081E0E4
:1019600001C0880F1A95EAF70E94DD12C83048F4CA
:1019700081E09D2F977001C0880F9A95EAF70E9429
:10198000D612802F0E94C312C830E8F4D77081E0CD
:1019900001C0880FDA95EAF7DF91CF911F910F917F
:1019A000FF90EF90DF90CF90BF90AF900C94DD123E
:1019B00080E28C0F883038F4C77081E001C0880F56
:1019C000CA95EAF7E9CFDF91CF911F910F91FF9070
:1019D000EF90DF90CF90BF90AF9008950F939C0150
:1019E000CB01233F4CE5340759F1A8F4283DFCE531
:1019F0003F0701F1293D4CE53407D1F1273D3C4536
:101A000091F406E221EE41EE67ED7CE50E94630C65
:101A100080E00F910895253FFCE53F07E9F0B0F025
:101A2000263F3C45F9F0FC018281882339F1109270
:101A30007302EFCF07E225EE45EE68ED7CE5E6CFD9
:101A400006E221EE40EE63EF7CE5E0CF07E225EE13
:101A500044EE64EF7CE5DACF06E221EE42EE65EF7C
:101A60007CE5D4CF07E225EE46EE66EF7CE5CECFEF
:101A700008E221E045EE69ED7CE5C8CF81E0C9CF01
:101A8000CF93DF93EC01FB018281882309F419C114
:101A9000C230FCE5DF07C0F1C6319CE5D90730F064
:101AA0009E012A5F3C452930310570F50E94C21A1B
:101AB0009093440580934305C031ECE5DE0709F4BB
:101AC000CFC008F05BC0C8308CE5D80709F4B6C0B9
:101AD00088F5C430ECE5DE0709F4A8C0C0F4C230D4
:101AE0008CE5D80709F49CC0809143058260C3301F
:101AF000DC4509F498C080914305909144050E940B
:101B0000D01A0E94121580E0DF91CF910895809144
:101B100043058061C630ECE5DE0709F484C080919E
:101B200043058860C730DC4508F47DC080914305DB
:101B3000806279C0CC308CE5D80709F489C070F494
:101B4000809143058C60CA30ECE5DE0709F46BC078
:101B500008F478C0809143058E7F65C0CE308CE557
:101B6000D80709F479C0809143058B7FCF30DC45DD
:101B700008F459C0809143058F7E55C0CB3FECE5FA
:101B8000DE0709F457C030F5C3318CE5D80709F4F6
:101B90006FC078F4C131ECE5DE0709F465C0C231ED
:101BA000DC4509F0A8CF0E941215809143058F777C
:101BB0003AC0C5318CE5D80709F462C008F476C094
:101BC000809144058160CA3FDC4509F094CF809341
:101BD000440591CFCF3FFCE5DF0709F44DC088F401
:101BE000809144058D7FCD3F9CE5D90781F380919D
:101BF00044058E7FCE3FDC4550F3809144058360E1
:101C0000E6CFC130FDE5DF0709F459C008F444C050
:101C100080E0C230DD4509F06ECF0E944E1B6BCFD5
:101C20008091430581608093430565CF8091430592
:101C30008460F9CF809144058260C9CF80914305CB
:101C40008064F1CF0E941215809143058068EBCF2C
:101C5000809143058D7FE7CF80914305877FE3CF58
:101C6000809143058F7DDFCF809143058F7BDBCF54
:101C700080914305837FD7CF809144058C7FA7CF88
:101C80008091430582FB992790F921E0922790FBF0
:101C900082F990FB83F9C7CF80914405982F9095E6
:101CA00091708E7F892B90FB81F991CF0E94121544
:101CB00090914305892F97FB87F98058B4CF81E035
:101CC000ACCF81E021CFCF93DF93EB0186319C45F0
:101CD00011F50E940D1A9A81992399F08A7A91E060
:101CE00009F490E090937402811109C089E20E9486
:101CF000E8190E944C1A80E0DF91CF91089585E3A6
:101D0000F6CF80917402811104C089E20E94EF191C
:101D1000F0CF85E3FBCF81E0EFCF1092B9008CE0EC
:101D20008093B8000895EF92FF920F931F93CF9383
:101D3000DF93182FEB011092BC0084EA8093BC0063
:101D40000E942A1C7C018091BC0087FF27C08091E3
:101D5000B900887F883029F08091B900887F803170
:101D6000D9F51093BB0084E88093BC000E942A1C24
:101D70008C018091BC0087FF24C02091B900287F8E
:101D800090E080E02831B1F081E090E0203411F45F
:101D900090E080E09195819591090CC0CF3FDC07E0
:101DA00091F20E942A1C8E199F098C179D0758F2E8
:101DB0008EEF9FEFDF91CF911F910F91FF90EF90EA
:101DC0000895CF3FDC07A9F20E942A1C801B910BCB
:101DD0008C179D0770F2ECCF8FEF9FEFEBCF0F9337
:101DE0001F93CF93DF93EB018093BB0084E8809334
:101DF000BC000E942A1C8C018091BC0087FF11C08E
:101E00002091B900287F81E090E0283211F490E021
:101E100080E0919581959109DF91CF911F910F916C
:101E20000895CF3FDC0741F30E942A1C801B910BD1
:101E30008C179D0708F38EEF9FEFEECFCF92DF92C6
:101E4000EF92FF920F931F93CF93DF936B018A0161
:101E50007901B9010E94930EE6010C0D1D1DC017FA
:101E6000D10761F424E92093BC00DF91CF911F9149
:101E70000F91FF90EF90DF90CF90089597FDF2CFF4
:101E8000B70189910E94EF0EEACFCF92DF92EF92D5
:101E9000FF920F931F93CF93DF93C62F6A017901AF
:101EA000B8010E94930E97FD0CC0B8018C2F0E94C0
:101EB000EF0EE601EC0CFD1CCE15DF0511F097FFCF
:101EC0000CC024E92093BC00DF91CF911F910F91AA
:101ED000FF90EF90DF90CF900895B80189910E9414
:101EE000EF0EEACF84E98093BC0008958EE14A9B0F
:101EF00002C08150E1F74A9BFECF08955A9880E2D4
:101F00008A95F1F75A9A0895FC013BE03A95F1F76A
:101F100020E090E080E031E040E14A95F1F7880F61
:101F20004A9B02C08160232742E04A95F1F70000F6
:101F300040E14A95F1F79F5F6913EECF90E19A95E2
:101F4000F1F799B132E03A95F1F7000040E14A9596
:101F5000F1F792FB992790F992272081920F9083B5
:101F60000895EF92FF920F931F93CF93DF930F92F9
:101F7000CDB7DEB719828C017C01E60EF11C0E157F
:101F80001F0561F481E09981911180E00F90DF914C
:101F9000CF911F910F91FF90EF9008950E94760FBF
:101FA00068E0CE0101960E94840FF80181938F01B1
:101FB000E6CF909377028093760260937502529AEF
:101FC0005A9A0895909377028093760260937502EF
:101FD00052985A9AEA9AE9E6F0E080818F7C8083F1
:101FE00008956150770B91E001C0990F6A95EAF767
:101FF00020E031E0911108C0222391F05A9A80E24A
:102000008A95F1F75A980895492F482339F05A9A3A
:10201000232740E24A95F1F79695ECCF5A98F9CFED
:102020005A98EDCFFF920F931F93CF93DF93EC015C
:102030008C01060F111DC017D10731F4DF91CF912C
:102040001F910F91FF900895F9900E947E0F68E014
:102050008F2D0E94F10FEFCF1F920F920FB60F92AC
:1020600011240F931F932F933F934F935F936F937D
:102070007F938F939F93AF93BF93EF93FF93CF93F0
:10208000DF930F92CDB7DEB719820E94760F67E01B
:10209000CE0101960E94840F082F0695069506959D
:1020A000982F92959570202F2570920F292F2370CD
:1020B000969596958770920F891344C089818111F6
:1020C00041C0809175028017E8F120E12A95F1F76F
:1020D0005A9A529A82E08A95F1F700C0A8E00A9FC6
:1020E000C00111240091760210917702080F191F88
:1020F0005A98F8016581662321F0868197810E94B4
:1021000012100E947E0FF0E1FA95F1F75A9852985A
:102110005A9A20E12A95F1F7D80112966C911297FC
:10212000662331F113968D919C910E94B10FD801D5
:10213000ED91FC91882311F088E001C082E080835A
:102140000E94760F0F90DF91CF91FF91EF91BF9199
:10215000AF919F918F917F916F915F914F913F913F
:102160002F911F910F910F900FBE0F901F901895F8
:10217000ED91FC91E1CF0F931F93CF93DF932091CB
:102180007502281719060CF471C08C0193E0000F3A
:10219000111F9A95E1F7C0917602D0917702C00F96
:1021A000D11FF894529A5A9825E02A95F1F7000029
:1021B000982F969595708570980F892F83709695B6
:1021C0009695980F092B0E947E0F00C067E0802F24
:1021D0000E94F10F80E18A95F1F752985A9A4A9B32
:1021E00017C087E090E04A9915C06D81662321F100
:1021F0008E819F810E94B10F81111EC0529A5A9AFE
:10220000E881F98182E08083789482E090E00DC0DB
:1022100000C0E5CF019771F4529A5A9AE881F9818A
:1022200081E08083789481E090E0DF91CF911F91ED
:102230000F91089500C0D7CF0E94760F20E22A9513
:10224000F1F75A98529A80E18A95F1F76A816623EC
:1022500021F08B819C810E9412100E947E0FE881E8
:10226000F9811082789490E080E0DFCF84E090E004
:10227000DCCF90937D0280937C020895E0917C02F4
:10228000F0917D02309721F00190F081E02D0994CA
:1022900080E00895E0917C02F0917D02309721F07A
:1022A0000280F381E02D0994089520917A02309103
:1022B0007B022817390771F090937B0280937A0292
:1022C000E0917C02F0917D02309721F00680F78149
:1022D000E02D099408952091780230917902281711
:1022E000390771F09093790280937802E0917C0233
:1022F000F0917D02309721F00084F185E02D099462
:10230000089585B7806885BF85B7806885BF0895C3
:10231000089508950C94881108950C948C110E94CE
:1023200081110E9489110C948A110C941C090E943D
:10233000211C0E94DF0780E00E94C6090E94861CC3
:102340000C948D11AF92BF92CF92DF92EF92FF92D9
:102350000F931F93CF93DF93CDB7DEB72A970FB6B6
:10236000F894DEBF0FBECDBF0E946208B82E0E9457
:102370009511882309F463C08FE7C82E82E0D82E18
:1023800010E000E0A02E802F0E94D307E82EF60177
:10239000F1906F01F81609F44CC08091FF0281FDA5
:1023A0000E94D9079F2D9E2580E0FF24F394292FBA
:1023B0002F21D1F18E83AF82EF2081E009F480E0FC
:1023C00088870E942A1C8160782F9A8789874E818E
:1023D0005F8168858A850E944112F801E158FD4FAE
:1023E0008081F826F0820E943A0CB1100E94100BF6
:1023F0000E943E1190917E02891791F10E943E1138
:1024000080937E022A960FB6F894DEBF0FBECDBF32
:10241000DF91CF911F910F91FF90EF90DF90CF90C0
:10242000BF90AF900C94B8058F5FFF0C863009F019
:10243000BECF0F5F1F4F0A30110509F0A3CF8FEFFA
:1024400089838A831B820E942A1C8160782F9D8346
:102450008C8349815A816B818D810E944112C3CF47
:102460002A960FB6F894DEBF0FBECDBFDF91CF9195
:102470001F910F91FF90EF90DF90CF90BF90AF90A2
:102480000895CF93DF93CDB7DEB72B970FB6F894AF
:10249000DEBF0FBECDBF4F83588769877A878B8792
:1024A0001E821D8285E0FE013796DE0111960190A5
:1024B0000D928A95E1F749815A816B817C818D81EA
:1024C0009E812B960FB6F894DEBF0FBECDBFDF9175
:1024D000CF910C947917FC01808191810C94BA19E9
:1024E000CF93C82F882329F18CEF8C0F813AA0F469
:1024F0006C2F80915001909151010E94651B88239F
:1025000029F08C2F0E94EF190E944C1A8C2F0E94E8
:10251000E819CF910C944C1A80E28C0F883048F463
:10252000C77081E001C0880FCA95EAF70E94101AAF
:10253000F0CFCF910895882329F19CEF980F913A1D
:1025400020F40E94EF190C944C1A90E2980F9830E6
:1025500050F4877091E001C0990F8A95EAF7892FAE
:102560000E94161AF0CF9BE5980F933020F490E06C
:1025700080E00C945511885A873120F490E080E077
:102580000C946B110895CF93C82F0E947012C93319
:1025900049F42FEF87EE93E0215080409040E1F71F
:1025A00000C000008C2FCF910C949B12882321F047
:1025B0000E94101A0C944C1A0895882321F00E944E
:1025C000161A0C944C1A0895BF92CF92DF92EF9294
:1025D000FF920F931F93CF93DF936C01D62FC72FDA
:1025E000FC01158112951F70028101110E942D1AA4
:1025F0000E94061AE82E882391F00023E9F08C2F20
:10260000807F803421F080E28D0F8830A8F082E056
:102610000E94971A0E94061A91E0E82EE926BC2E25
:10262000B2949FE0B922FBE0FB15A8F1EB2DF0E09E
:10263000E35CF94D0C940023E12CF1CF1C2F1F70AB
:10264000C07F11F01295107F0023A9F0112359F0DB
:1026500080E28D0F883010F0D11109C0812F0E94C7
:10266000101A0E944C1A8D2F0E94701214C0812FD4
:102670000E94201AF6CF8D2F0E949B12112359F031
:1026800080E28D0F883010F0D1112CC0812F0E9474
:10269000161A0E944C1A2B2D2850330B243031056A
:1026A00020F40E943E110E94B805EE2009F467C193
:1026B0000E94021A80FD63C1F60112820E94FC1979
:1026C0000E948518C6010E94E0140E94FC19DF9147
:1026D000CF911F910F91FF90EF90DF90CF90BF901F
:1026E0000C94A618812F0E94261AD3CF2C2F2F705E
:1026F000F22EC07FC03219F0F29480EFF822DD2371
:1027000069F0D13049F1002391F1112351F1F60123
:10271000858180FFA8CF8F70858323C0002381F03F
:10272000111106C00E94331A8F290E94D612B3CF0E
:102730001130C1F70E94331A8F290E94391AABCF8A
:10274000111106C00E94421A8F2D0E94DD12A3CFE4
:10275000113009F4A0CFF6CF002329F0163008F08D
:102760009ACF8F2DE2CF153008F095CFEDCF112302
:1027700059F3D93349F4FFEF27EE33E0F15020400D
:102780003040E1F700C000008D2F0E949B1283CFE4
:102790008C2F837009F041C001117DCF4D2F4295E0
:1027A00046954770440F440F0D2F0F7010E030E036
:1027B00020E0042E04C0000F111F221F331F0A94B3
:1027C000D2F760E070E0CB01D4FF0FC06FE070E0A3
:1027D00080E090E004C0660F771F881F991F4A951C
:1027E000D2F76095709580959095C695C695C37003
:1027F000602B712B822B932BC23049F058F4C130DF
:1028000019F00E94371847CF0E94251844CF0E9424
:10281000491841CF0E9423183ECF8695002311F01E
:102820008C2F8170882309F436CF4D2F4295469521
:102830004770440F440F0D2F0F7010E030E020E080
:10284000042E04C0000F111F221F331F0A94D2F759
:1028500060E070E0CB01D4FF0FC06FE070E080E07B
:1028600090E004C0660F771F881F991F4A95D2F722
:102870006095709580959095C695C695C370602BB0
:10288000712B822B932BC23049F058F4C13019F0D0
:102890000E94FC1800CF0E94EA18FDCE0E940E197B
:1028A000FACE0E945F18F7CECF70002329F08C2F4C
:1028B0000E9485188D2F39CF8D2F0E94DD128C2F0D
:1028C0000E94A618E8CED23F89F160F4D03FC9F04B
:1028D000D13F29F1002309F442C01111C4CE8C2F3D
:1028E0008F7121C0D33F39F1D43FA1F7002369F1A3
:1028F000CF718C2F0E94851863E08C2F0E94821A62
:10290000CACE002341F0153008F0C5CE8C2F8F7150
:102910000E94C918C0CE163008F0BDCEF7CF8C2F5C
:102920008F71002369F20E948518B5CE8C2F8F71AC
:102930000023C9F3C5CF002329F08C2F8F710E948B
:102940007018A9CE0E946B18A6CE81E00E94971A3B
:10295000123008F4A0CE82E00E94971A9CCE112378
:1029600059F0D93309F010CF8FEF97EEE3E08150A3
:102970009040E040E1F706CF8C2F8F71A1CFDF911F
:10298000CF911F910F91FF90EF90DF90CF90BF906C
:1029900008950F931F93CF93DF93EC0168817981A2
:1029A0008A810E94C4198C010E9420190E94221859
:1029B000B801CE01DF91CF911F910F910C94E412D9
:1029C000CF93DF93EC018B819C81892B29F0888147
:1029D000998189238F3F59F4DF91CF910895CE01DA
:1029E0000E94C914CE01DF91CF910C949C05CE01B9
:1029F0000E94D0058111F3CF0E94061A882361F34B
:102A00008A81882349F382E0DF91CF910C94971A51
:102A10000E942D1A0E94301A0C944C1A0E94F6192A
:102A20000C9408150E941D1A0C940E15E92FE295BE
:102A3000EF70E250EE3070F4F0E0E75BF94D0C948B
:102A40000023803F19F020F4883E20F481E00895AF
:102A5000843FE1F380E00895883EC0F3813FD1F7E1
:102A6000F5CF93FB882780F908950E94BA190C943A
:102A70001615CF93DF9300D000D00F92CDB7DEB7FD
:102A80000F900F900F900F900F90DF91CF910895BE
:102A9000CF93DF9300D000D000D0CDB7DEB726961D
:102AA0000FB6F894DEBF0FBECDBFDF91CF91089572
:102AB0001F93CF93DF93C0918A0216E080918B021F
:102AC0008C1304C0DF91CF911F910895D0E01C9F1B
:102AD000F0011D9FF00D1124E457FD4F40815181FD
:102AE00062817381848195810E9448152196C77007
:102AF000E5CF4091BC025091BD026091BE02709141
:102B0000BF028091C0029091C1020C9448151F939E
:102B1000CF93DF938091C102807FA9F48091BE02A0
:102B2000882389F080918A02C0918B026091BC0257
:102B30007091BD02A091BF02B091C002D62FD723E1
:102B400016E0C81304C0DF91CF911F91089590E063
:102B5000109711F0DF3F19F401968770F2CF189F9C
:102B60009001199F300D1124F901E457FD4F418167
:102B70004713F2CF40814613EFCF42814111ECCF92
:102B8000438154814A1B5B0B4436510528F78091E1
:102B9000C1028F7080618093C102F901EF56FD4F31
:102BA00080818F70806180838CEB92E00E94E014C2
:102BB000DF91CF911F910C945815AF92BF92CF9295
:102BC000DF92EF92FF920F931F93CF93DF93CDB7D6
:102BD000DEB761970FB6F894DEBF0FBECDBF8C0194
:102BE00085E0F801DE011D9601900D928A95E1F7CE
:102BF000F80140815181E2808CEBC82E82E0D82E12
:102C00006091BF027091C0026115710509F44FC156
:102C10009091BC022091BD02892F82238F3F09F43D
:102C200046C1A380B480F090BE02F501E61BF70B0D
:102C3000FF2009F40AC18091C102382F307FE436A9
:102C4000F10508F0C0C0311179C0FE2C251323C056
:102C5000941321C0E1101FC08F7080618093C10266
:102C60000E947915C6010E94E0148091C102F8010A
:102C700085838F2D61960FB6F894DEBF0FBECDBF52
:102C8000DF91CF911F910F91FF90EF90DF90CF9048
:102C9000BF90AF900895AB2829F0842F85238F3FF4
:102CA00009F021C180E0F82FF170DF2E80FF3CC0D9
:102CB00080918A0220918B0236E0821315C04D87E5
:102CC0005E878D859E850E94BA19292F22952F70C7
:102CD0002230F0F0243018F59F70F1F0F801958162
:102CE000907FD1F4D12C1EC090E0389FF001399F25
:102CF000F00D1124E457FD4F6181651306C060811A
:102D0000641303C062816E110FC001968770D5CF26
:102D10009F7011F0882331F3805E883018F3C8016A
:102D20000E94E014FD2CA5CFEE2009F4A2CF8091E3
:102D3000C10281608093C102F12C9BCF251314C086
:102D4000941312C0E11010C0F8018583C8010E94DD
:102D5000E01486E0F801ACEBB2E001900D928A95A8
:102D6000E1F70E94791585CF4D875E878D859E8519
:102D70000E943515882319F1EE2009F18091C102D6
:102D8000803270F02091BC023091BD0238872F83D1
:102D90001986BB86AA868C87CE0107960E94E0140E
:102DA00086E0F801ACEBB2E001900D928A95E1F774
:102DB0000E9487150E947915FF24F3945ACFC80109
:102DC0000E94E014F9CF311113C07A2DB98AA88A74
:102DD0006E2D89890E9439158CEB92E00E94E014D7
:102DE00086E0F60111928A95E9F70E947915A4CF41
:102DF00025130FC094130DC0E1100BC0F80185839B
:102E0000C8010E94E01486E0F60111928A95E9F764
:102E100030CF4D875E878D859E850E94351588232E
:102E200071F2EE2061F28091C102803208F4B8CFD5
:102E30002091BC023091BD023A8329831B82BD825E
:102E4000AC828E83CE010196A9CFE436F10510F550
:102E5000FE2CEE2009F4B3CF25130BC0941309C048
:102E600086E0F801ACEBB2E001900D928A95E1F7B3
:102E700000CF4D875E878D859E850E943515811117
:102E80008FCF8091C10281608093C102C8010E94EE
:102E9000E014EFCE7A2DB98AA88A6E2D89890E9416
:102EA000391586E0F60111928A95E9F75ACFEE209E
:102EB00009F485CF4D875E878D859E850E943515E7
:102EC000F82E882309F47BCF86E0F801ACEBB2E062
:102ED00001900D928A95E1F78CEB92E00E946B12C3
:102EE0000E9487153ECF81E08E25DDCE84E690E0FE
:102EF00008951F93CF93DF93CDB7DEB72C970FB60E
:102F0000F894DEBF0FBECDBF4F83588769877A879D
:102F10008B879C87CE0107960E94DD15882369F078
:102F20008A859B85892B39F04F815885842F85238D
:102F30008F3F09F071C016E05FC086E0FE01379652
:102F4000DE01119601900D928A95E1F78A859B85A5
:102F5000892B89F38F81988589238F3F61F3209195
:102F60008B0230E0C90101968770992740918A024F
:102F70004817190671F40E94121510928B021092D4
:102F80008A0286E0ECEBF2E0DF011D928A95E9F718
:102F9000D2CF96E0929FD001939FB00D1124A457F9
:102FA000BD4FFE01319601900D929A95E1F7809305
:102FB0008B020E945815BFCF819FC00111248457F6
:102FC0009D4F0E94DD158823E9F0E0918A021E9F43
:102FD000F0011124E457FD4F4081518162817381DA
:102FE000848195810E94481580918A0290E0019623
:102FF0008770992780938A0280918A0290918B0230
:103000008913DACF2C960FB6F894DEBF0FBECDBF72
:10301000DF91CF911F91089569857A858B859C8575
:103020000E94481588CF08950C9413180E94141814
:103030006093EE027093EF028093F0029093F1029E
:103040000C94081508950C9416180F931F93009173
:10305000EE021091EF022091F0023091F102602B0C
:10306000712B822B932B1F910F910C9416180F9399
:103070001F930091EE021091EF022091F002309127
:10308000F10260237123822393231F910F910C94EB
:1030900016180F931F930091EE021091EF022091EA
:1030A000F0023091F10260277127822793271F9148
:1030B0000F910C9416180C9413180C945B180E9422
:1030C0005D186093EA027093EB028093EC02909398
:1030D000ED020C94081560E070E0CB010C945F18D1
:1030E0000F931F9341E050E060E070E08A019B0184
:1030F00004C0000F111F221F331F8A95D2F7C90188
:10310000B8011F910F910C945F180F931F9341E02A
:1031100050E060E070E004C0440F551F661F771F49
:103120008A95D2F78091EA029091EB02A091EC028D
:10313000B091ED028A019B01082B192B2A2B3B2B06
:10314000C901B8011F910F910C945F180F931F9341
:1031500041E050E060E070E004C0440F551F661F7E
:10316000771F8A95D2F7CB01BA016095709580954B
:1031700090950091EA021091EB022091EC023091BF
:10318000ED0260237123822393231F910F910C94EE
:103190005F180F931F9341E050E060E070E004C0BF
:1031A000440F551F661F771F8A95D2F78091EA0258
:1031B0009091EB02A091EC02B091ED028A019B018B
:1031C000082719272A273B27C901B8011F910F910A
:1031D0000C945F180F931F930091EA021091EB0279
:1031E0002091EC023091ED02602B712B822B932BFE
:1031F0001F910F910C945F180F931F930091EA0297
:103200001091EB022091EC023091ED0260237123CA
:10321000822393231F910F910C945F180F931F9398
:103220000091EA021091EB022091EC023091ED0244
:1032300060277127822793271F910F910C945F18A5
:103240000895E92FEE0FE90FEE0F8E0F982F97706C
:1032500041E001C0440F9A95EAF7869586958695D8
:1032600095E0899FF0011124EE53FD4F30E020E0FE
:1032700070E05191DF011197CB01022E02C09695AB
:1032800087950A94E2F781708195852784238527A5
:103290008C932F5F3F4F2530310559F70895E92F63
:1032A000EE0FE90FEE0F8E0F982F9770869586958B
:1032B000869525E0829FF0011124EE53FD4F50E0EA
:1032C00040E080E0219130E0092E02C0369527953C
:1032D0000A94E2F721703327042E01C0220F0A94CA
:1032E000EAF7822B4F5F5F4F4530510559F708953C
:1032F000BF92CF92DF92EF92FF920F931F93CF93E3
:10330000DF938C01C090EA02D090EB02E090EC02D7
:10331000F090ED028091EE029091EF02A091F00208
:10332000B091F102C82AD92AEA2AFB2ACFE1D0E0DB
:10333000BC2ED701C6010C2E04C0B695A795979553
:1033400087950A94D2F780FD0EC0219788F7B12C9B
:103350008B2DDF91CF911F910F91FF90EF90DF9018
:10336000CF90BF900895B8018C2F0E94200601973E
:1033700061F3EECFCF93DF93EC010E947819BE0189
:10338000DF91CF910C9420061F93CF93DF93EB0135
:1033900090918902992331F0CB01DF91CF911F9158
:1033A0000C94BA19882379F0CB010E947819182F50
:1033B000682FCE010E942119BE01812FDF91CF918C
:1033C0001F910C942006CB010E944F19182FF4CFA7
:1033D000682F80915001909151010C949B1B682F94
:1033E00080915001909151010C949D1B809150014E
:1033F000909151010C949F1B8091F20285958595C7
:10340000859508958091F202877008959091F20257
:10341000977081E009F480E008958091FE0208959C
:103420009091FE02892B8093FE02089580959091E1
:10343000FE0298239093FE0208951092FE020895D2
:103440009091FD02892B8093FD02089580959091C3
:10345000FD0298239093FD0208951092FD020895B5
:103460001092FC0208958091F302089508950C943F
:10347000361A9091F302981721F08093F3020C947E
:10348000371A08958091F302882329F01092F302ED
:1034900080E00C94371A0895E0915001F0915101A9
:1034A0008091FE028083E0915001F0915101808172
:1034B0009091FD02892B8083E0915001F0915101A0
:1034C00080819091FC02892B80839091F302992353
:1034D00081F0E0915001F09151018081892B80832E
:1034E00080915001909151010E94531B81110E94C3
:1034F000421A80915001909151010C944A11089503
:103500000C947F1A98E0899F90011124622B60939C
:10351000F2020E9485188091F20285958595859525
:103520000C94801A1092F20280E00C94801A909110
:10353000F202809589238093F202282F277071F47C
:10354000282F082E000C330B9217130639F085959F
:10355000859585950E94A6180C94921A089590E07E
:1035600080E00E94CA2521E08C3E9E4F09F020E0B9
:10357000822F089582E090E00C94C22583E090E0D1
:103580000C94C225CF9384E090E00E94C225C82FFE
:1035900081E290E00E94C225982F8C2FCF91089550
:1035A000CF93C92F682F84E090E00E94D0256C2F24
:1035B00081E290E0CF910C94D025AB01BC018FE06B
:1035C00090E00C94E225AB01BC0183E190E00C9407
:1035D000E22560E070E0CB010C94E31A60E070E05B
:1035E000CB010E94DD1A0C94E91A6CEE7EEF90E09C
:1035F00080E00E94EE2560E082E090E00E94D0250D
:1036000060E083E090E00E94D0251092EE021092DC
:10361000EF021092F0021092F10260E084E090E07C
:103620000E94D02560E081E290E00E94D02560E019
:1036300085E090E00E94D02560E086E090E00E9466
:10364000D0256FEF87E090E00E94D02540E050E069
:10365000BA0188E090E00E94E22560E08DE090E011
:103660000E94D02540E050E0BA0188E190E00E943D
:10367000E22560E087E190E00E94D02540E050E044
:10368000BA018CE190E00E94E22560E080E290E0E7
:103690000E94D0250C94EE1A0C94F51A682F8EE037
:1036A00090E00C94D0259C012E5F3F4FAC01485F09
:1036B0005F4F80E02417350709F40895F9019191CF
:1036C0009F019923B9F38F5FF5CF662349F0FC0181
:1036D000329608962191261729F0E817F907D1F7B5
:1036E00080E0089581E008959C01FC0132969FEFEF
:1036F00080E04191461751F09F3F19F4411101C0FC
:10370000982F8F5F8630A9F79F3F09F40895290FFE
:10371000311D97FD3A95F90162830895FC013296B7
:1037200008962191261303C0DF0111971C92E81718
:10373000F907B9F708950C94741B0C948E1B02962C
:1037400026E0FC0111922A95E9F70895089508955D
:103750000C94A71B0E94A81B80914905843049F155
:103760001092000388E190E020E40FB6F894A89549
:10377000809360000FBE2093600080E00E94B80537
:103780000E94A81B83B7817F846083BF83B7816059
:1037900083BF7894889583B78E7F83BF0FB6F894E4
:1037A000A89580916000886180936000109260000D
:1037B0000FBE08950895CF930E94A61B0E94620831
:1037C0000E94DA1BC0E08C2F0E94D307811105C034
:1037D000CF5FCA30C1F7CF91089581E0FCCF089543
:1037E0000C94EF1B0E9412150E943E110E94B80516
:1037F0000C94F01B1F921FB61F9211248F939F935E
:10380000AF93BF9380910003811113C080913F0556
:1038100090914005A0914105B09142054196A11DAE
:10382000B11D80933F0590934005A0934105B0934F
:103830004205BF91AF919F918F911F901FBE1F9026
:10384000189582E084BD93E095BD9AEF97BD809373
:103850006E0008952FB7F89480913F059091400530
:10386000A0914105B09142052FBF08952FB7F8945C
:1038700060913F057091400580914105909142050E
:103880002FBF08959C014FB7F89480913F05909108
:103890004005A0914105B09142054FBF821B930B9B
:1038A000089578941F921FB61F9211248F939F93AF
:1038B000AF93BF9380913F0590914005A091410542
:1038C000B09142050196A11DB11D80933F059093D3
:1038D0004005A0934105B0934205BF91AF919F91E0
:1038E0008F911F901FBE1F90189587E797E79093C1
:1038F00001088093000888E19AE00FB6F894A89533
:10390000809360000FBE90936000FFCF0E94AF1ABB
:10391000811102C00E944C1B0E94BA1A8093FF02C0
:103920000E94C21A90934405809343050E94BE1AD8
:10393000682F70E090E080E00E9423186091EA0216
:103940007091EB028091EC029091ED020C945D1865
:1039500080910903089508950895CF93DF93EC01B2
:1039600081E08093E9008FEF9091E800815095FD10
:1039700006C095ED9A95F1F700008111F5CF809181
:10398000E80085FF14C050E040E068E070E0CE0140
:103990000E944F1E8091E8008E778093E80088E0B7
:1039A000FE01A1E0B3E001900D928A95E1F7DF916D
:1039B000CF910895089580914805811109C00E9412
:1039C000DF1F0E943C208091E20084608093E2002F
:1039D0000895109248050895089508950C94F21BD7
:1039E00042E061EC81E00C945B1F80914B058330D9
:1039F00009F45FC030F48130C1F1823009F49BC01A
:103A000008958A3009F487C08B3009F46DC089307D
:103A100009F04EC080914A05813209F049C0809179
:103A20004E0590914F05892B09F042C08091E80026
:103A3000877F8093E8008091E80082FF35C09091F5
:103A4000F3008091F200029729F48091F1008B7FBE
:103A5000813021F48091F100809309038091E80086
:103A60008B778093E8000C948F1F80914A05813AF0
:103A7000F9F48091E800877F8093E80080914E05FB
:103A800090914F05892B61F468E081E093E070E04C
:103A90000E949E1E8091E8008B778093E800089535
:103AA00060E090E080E0F3CF809149058111C3CFC1
:103AB000089580914A05813AD9F780914E059091F9
:103AC0004F05892BA9F78091E800877F8093E80054
:103AD0008091E80080FFFCCF80915C018093F10031
:103AE0008091E8008E77BDCF80914A05813201F741
:103AF00080914E0590914F05892BD1F68091E80079
:103B0000877F8093E8000E948F1F80914C058093EF
:103B10005C010C94121580914A05813249F680911E
:103B2000E800877F8093E8000E948F1F80914D05F9
:103B300080930A03089580914A05813A09F0B8CF2D
:103B40008091E800877F8093E8008091E80080FF03
:103B5000FCCF80910A03C2CF84B7877F84BF0FB6A2
:103B6000F894A8958091600088618093600010921D
:103B700060000FBE80E890E00FB6F894809361007B
:103B8000909361000FBE0E948F110E94DF1F0E9460
:103B90003C208091E20084608093E20078940E944F
:103BA000C5220E94971182E591E00E94391180910F
:103BB0004905853019F00E94A211F9CF0E94AA1B75
:103BC00080914705882399F30E94DB1B882379F3B2
:103BD0000E94391EECCF0C94ED1D292F3327233082
:103BE0003105C9F058F421303105C9F122303105D1
:103BF000D9F190E080E030E020E020C021323105B2
:103C000039F122323105A9F780E490E020E538E06F
:103C1000672B79F713C099278130910599F00097A8
:103C200041F08230910589F0039719F7E0EFF7E052
:103C300002C0E8E1F8E0849190E09F01FA0131834D
:103C400020830895E6E0F8E0F6CFE6EFF7E0F3CF63
:103C500089E090E02EE238E0672B59F6EFCF82E161
:103C600090E02EE338E0EACF82E290E02CE138E009
:103C7000E5CF80E189BD82E189BD09B400FEFDCFB9
:103C80008091D8008F7D8093D8008091E000826081
:103C90008093E0008091E00081FDFCCF0895AF9219
:103CA000BF92CF92DF92FF920F931F93CF93DF9338
:103CB0006C01EB018A010E94AE1FF82E811123C016
:103CC0000115110539F0F80180819181C81BD90BCC
:103CD000C80ED91EB12CA12C2097A9F08091E80024
:103CE00085FD22C08091E8008E778093E800011561
:103CF0001105A1F0F80180819181A80EB91EB18251
:103D0000A08285E0F82E8F2DDF91CF911F910F912A
:103D1000FF90DF90CF90BF90AF9008950E94AE1FAC
:103D20008823D1F2F82EEFCFF60181916F018093B5
:103D3000F1002197FFEFAF1ABF0ACECFFC018091AF
:103D400050059091510586179707A0F061157105F0
:103D500029F49091E8009E779093E80090E0611537
:103D6000710551F4911108C08091E80082FF34C0C0
:103D700080E00895BC01F2CF809149058823C1F10C
:103D80008530C1F18091E80083FD30C08091E8006A
:103D900082FDEACF8091E80080FFE1CF8091F300BF
:103DA0002091F200382F6115710519F02830310586
:103DB00058F091E02830310509F090E02091E800BA
:103DC0002E772093E800CBCF81918093F100615052
:103DD00071092F5F3F4FE7CF80914905882341F05C
:103DE000853041F08091E80083FFBECF81E00895E7
:103DF00082E0089583E00895FC0180915005909140
:103E0000510586179707A0F06115710529F4809177
:103E1000E8008E778093E80090E06115710551F419
:103E2000911108C08091E80082FF35C080E00895BC
:103E3000BC01F2CF809149058823C9F18530C9F1D1
:103E40008091E80083FD31C08091E80082FDEACFD7
:103E50008091E80080FFE1CF8091F3002091F20093
:103E6000382F6115710519F02830310558F091E0AF
:103E70002830310509F090E08091E8008E7780933A
:103E8000E800CBCF84918093F100319661507109A5
:103E90002F5F3F4FE6CF80914905882341F0853061
:103EA00041F08091E80083FFBDCF81E0089582E07A
:103EB000089583E00895982F973028F08F708093AD
:103EC000E90081E008959093E900242F762F50E0D7
:103ED000981731F07091EC002091ED005091F000B6
:103EE00021FD02C09F5FE8CF3091EB003E7F309311
:103EF000EB003091ED003D7F3093ED003091EB0011
:103F000031603093EB007093EC002093ED00509300
:103F1000F0002091EE0027FDE5CF80E0089580912C
:103F20004A0587FF13C08091E80082FF06C0809198
:103F3000E8008B778093E80004C0809149058111E7
:103F4000F2CF0895809149058823D9F38091E80044
:103F500080FFF8CF8091E8008E77ECCF2091E400CD
:103F60003091E50095E6A9012091EC00822F817047
:103F700020FF06C08091E80080FF06C080E0089521
:103F80002091E80022FD1AC080914905882389F01C
:103F9000853089F08091EB0085FD0FC02091E40011
:103FA0003091E50042175307F9F29150E1F684E0B1
:103FB000089582E0089583E0089581E008950E94C5
:103FC0004D200E945520E0EEF0E0808181608083EA
:103FD000E8EDF0E080818F77808319BCA7EDB0E039
:103FE0008C918E7F8C9380818F7E80831092480588
:103FF00008950F931F93CF93DF930E944D200E944B
:104000005520C8EDD0E088818F77888388818068CB
:10401000888388818F7D888319BC1092490510920E
:104020004505109247051092460500EE10E0F80194
:1040300080818B7F808388818160888342E060E01B
:1040400080E00E945B1FE1EEF0E080818E7F808344
:10405000E2EEF0E0808181608083808188608083EF
:10406000F80180818E7F8083888180618883DF91E1
:10407000CF911F910F910895E8EDF0E080818F7E40
:104080008083E7EDF0E080818160808384E082BFFF
:1040900081E0809348050C94F91FE8EDF0E0808101
:1040A0008E7F80831092E20008951092DA001092C1
:1040B000E10008951F920F920FB60F9211242F93D3
:1040C0003F934F935F936F937F938F939F93AF93A0
:1040D000BF93EF93FF938091E10082FF0BC080912B
:1040E000E20082FF07C08091E1008B7F8093E100B6
:1040F0000E94C4228091DA0080FF19C08091D8000C
:1041000080FF15C08091DA008E7F8093DA00809165
:10411000D90080FF96C080E189BD82E189BD09B4E4
:1041200000FEFDCF81E0809349050E94DB1C809159
:10413000E10080FF19C08091E20080FF15C08091EE
:10414000E2008E7F8093E2008091E20080618093A4
:10415000E2008091D80080628093D80019BC85E08D
:10416000809349050E94ED1C8091E10084FF2BC0E3
:104170008091E20084FF27C080E189BD82E189BD92
:1041800089B5982F917080FFFBCF8091D8008F7DEB
:104190008093D8008091E1008F7E8093E100809130
:1041A000E2008F7E8093E2008091E2008160809344
:1041B000E20080914505882309F449C084E080939A
:1041C00049050E94EE1C8091E10083FF29C0809187
:1041D000E20083FF25C08091E100877F8093E100AA
:1041E00082E080934905109245058091E1008E7F21
:1041F0008093E1008091E2008E7F8093E2008091C5
:10420000E20080618093E20042E060E080E00E9492
:104210005B1F8091F00088608093F0000E94EC1C8E
:10422000FF91EF91BF91AF919F918F917F916F918E
:104230005F914F913F912F910F900FBE0F901F9064
:10424000189519BC109249050E94E91C70CF809105
:10425000E30087FD93E090934905B3CF1F920F923F
:104260000FB60F9211242F933F934F935F936F9349
:104270007F938F939F93AF93BF93CF93DF93EF93EE
:10428000FF93D091E900DF708091EC00C82FC170DE
:1042900080FDC0E81092E9008091F000877F809354
:1042A000F00078940E9472211092E9008091F00051
:1042B00088608093F000CD2BCF70C093E900FF9110
:1042C000EF91DF91CF91BF91AF919F918F917F91AE
:1042D0006F915F914F913F912F910F900FBE0F9073
:1042E0001F9018951F93CF93DF93CDB7DEB7AA9792
:1042F0000FB6F894DEBF0FBECDBF8AE495E02091E3
:10430000F100FC012193CF01F5E082359F07B9F759
:104310000E94F51C8091E80083FF1EC180914A0530
:1043200090914B059A3008F017C1E92FF0E0E95A57
:10433000F94D0C940023803899F0823809F00CC1B3
:1043400080914E058F70873008F006C18093E90098
:104350008091EB0085FB882780F91092E90006C068
:104360008091460590914705911182609091E800F7
:10437000977F9093E8008093F1001092F100809174
:10438000E8008E77E5C0882309F4D3C0823009F0B5
:10439000E3C080914C058111D6C080914E058F708D
:1043A0002FEF280F263008F0D7C08093E900209126
:1043B000EB0020FFC8C0933031F48091EB008062A5
:1043C0008093EB00C0C09091EB0090619093EB0064
:1043D00021E030E001C0220F8A95EAF72093EA003D
:1043E0001092EA008091EB008860EACF8111B4C09E
:1043F00010914C051F778091E3008078812B80938A
:10440000E3008091E800877F8093E8000E948F1F7F
:104410008091E80080FFFCCF8091E300806880936A
:10442000E30082E0111183E08093490595C0805834
:10443000823008F091C080914C0590914D058C3DE3
:1044400023E09207A1F583E08A838AE289834FB74C
:10445000F894DE01139620E03EE051E2E32FF0E015
:1044600050935700E49120FF03C0E295EF703F5F47
:10447000EF708E2F90E0EA30C0F0C7968D939D9339
:104480002F5F243159F74FBF8091E800877F8093D9
:10449000E8006AE270E0CE0101960E949E1E8091C3
:1044A000E8008B778093E80057C0C096E7CF609113
:1044B0004E0570914F05AE014F5F5F4F0E94EB1D9F
:1044C000BC01892B09F448C09091E800977F909334
:1044D000E80089819A810E94FC1EE1CF8038E1F5D5
:1044E0008091E800877F8093E80080914505809364
:1044F000F10045CF811130C090914C05923060F5AC
:104500008091E800877F8093E800909345050E94A2
:104510008F1F80914505882311F084E005C08091AC
:10452000E30087FDFACF81E0809349050E94F01CEB
:1045300013C080914C05813079F481E0933009F00B
:1045400080E0809347051092E9008091E800877F22
:104550008093E8000E948F1F8091E80083FF0AC0CB
:104560008091E800877F8093E8008091EB00806273
:104570008093EB00AA960FB6F894DEBF0FBECDBFB6
:10458000DF91CF911F9108950895CF9380914905B0
:104590008823A1F0C091E900CF709091EC00892FA1
:1045A000817090FD80E8C82B1092E9008091E800AE
:1045B00083FD0E947221CF70C093E900CF910895CE
:1045C000991B79E004C0991F961708F0961B881F65
:1045D0007A95C9F780950895AA1BBB1B51E107C0C6
:1045E000AA1FBB1FA617B70710F0A61BB70B881F83
:1045F000991F5A95A9F780959095BC01CD01089512
:10460000EE0FFF1F0590F491E02D0994FB01DC01F2
:1046100002C005900D9241505040D8F70895FB011B
:10462000DC0104C08D910190801921F4415050406B
:10463000C8F7881B990B0895FB01DC0101900D92CE
:104640000020E1F70895AEE0B0E0E9E2F3E20C9477
:1046500012260D891E898F89988D26E02C831A8356
:10466000098397FF02C080E090E801979E838D83C5
:10467000AE01455E5F4F698D7A8DCE0101960E9435
:1046800053234D815E8157FD0AC02F813885421723
:1046900053070CF49A01020F131FF80110822E9693
:1046A000E4E00C942E26ABE0B0E0E9E5F3E20C94F4
:1046B00004267C013B018A01FC011782168283815A
:1046C00081FFB9C19AE0292ECE0101965C01F70164
:1046D0009381F30193FD859193FF81913F0188239D
:1046E00009F446C1853239F493FD859193FF819198
:1046F0003F01853229F4B70190E00E943425E7CFCD
:10470000912C412C512CFFE1F51538F08B3209F139
:1047100088F4803201F1833221F157FC3AC020ED58
:10472000280F2A3040F556FE1FC0929C200D112400
:10473000922E06C08D3291F0803379F7689450F84C
:10474000F30193FD859193FF81913F018111DBCFAF
:1047500020C0689451F8689452F8F2CF689453F8E6
:10476000EFCF689454F8ECCF429C200D1124422ED8
:10477000689455F8E5CF8E3229F456FCF9C0689458
:1047800056F8DECF8C3619F4689457F8D9CF8836AE
:10479000B9F2982F9F7D95549330C0F08336A1F1E4
:1047A0008337C1F1833509F05BC0F801C190D19026
:1047B0008F01692D70E056FC02C06FEF7FEFC601DC
:1047C0000E941E254C01689457F80AC00C5F1F4FC9
:1047D0002FE3298388248394912C6501E89457F86A
:1047E00053FC04C04814190409F018F5342C811442
:1047F000910431F5332009F46ACFB70180E290E0EB
:104800000E9434253A94F6CFF801808189830E5FA7
:104810001F4FE0CFF801C190D1908F01692D70E05A
:1048200056FC02C06FEF7FEFC6010E9429254C01A4
:10483000D5CFB70180E290E00E9434254A94D2CFD0
:10484000F60157FC859157FE81916F01B70190E009
:104850000E94342531103A94F1E08F1A9108C7CFA5
:10486000843619F0893609F074C0F80157FE6AC021
:1048700061917191819191918F01252D2F76D22E89
:1048800097FF09C090958095709561957F4F8F4FE8
:104890009F4F6894D7F82AE030E0A5010E94642574
:1048A000C82ECA188C2C5D2CD6FE0CC0E89450F88B
:1048B000C91440F4D4FE05C0D2FC03C0FD2DFE7E19
:1048C0005F2E892C54FE8FC0FE01EC0DF11D8081FE
:1048D000803309F081C0252D297E522E852D8870C8
:1048E000382E53FC8FC050FE89C09C2C841418F4C1
:1048F0004C0C942C981854FE8BC0B70180E390E0C8
:104900000E94342552FE09C088E790E051FE02C0A3
:1049100088E590E0B7010E943425C91408F484C0EA
:10492000CA94D12C9FEFC91AD90ACA0CDB1CF60114
:1049300082916F01B70190E00E943425AC14BD0450
:10494000B1F758CF61917191072E000C880B990B2C
:1049500093CFD52CE894D4F82AE030E0853739F1AC
:10496000952D997FD92E8F3601F148F48835A9F01D
:10497000F701868197812B96E2E10C9420268037FF
:1049800049F08837A9F7D4FE02C06894D2F820E134
:1049900030E00DC06894D4F8F6CF54FE03C0E92F80
:1049A000E660DE2E20E132E002C028E030E0F801CF
:1049B000D7FE0DC061917191819191918F01A501F7
:1049C0000E946425C82ECA18E894D7F86BCF61916D
:1049D000719190E080E0F2CF52FC02C083947ECFD0
:1049E000839483947BCF852D867809F477CFF6CF97
:1049F000B70180E290E00E94342583948414C0F3D0
:104A0000312C79CF342C3818841408F474CFF8CFB3
:104A1000852D867809F481CF8BE251FE80E257FC28
:104A20008DE2B70190E077CFB70180E390E00E947C
:104A300034259A9472CF8FEF9FEF9DCFFC010590A4
:104A4000615070400110D8F7809590958E0F9F1F90
:104A50000895FC016150704001900110D8F78095D5
:104A600090958E0F9F1F08950F931F93CF93DF9301
:104A7000182F092FEB018B8181FD09C01FEF0FEF6C
:104A8000812F902FDF91CF911F910F91089582FF79
:104A900014C02E813F818C819D81281739073CF4F9
:104AA000E881F981CF0101969983888310838E81F3
:104AB0009F8101969F838E83E3CFE885F985812FBF
:104AC0000995892BA1F3DACFFA01AA27283051F1F1
:104AD000203181F1E8946F936E7F6E5F7F4F8F4F2F
:104AE0009F4FAF4FB1E03ED0B4E03CD0670F781F8E
:104AF000891F9A1FA11D680F791F8A1F911DA11D73
:104B00006A0F711D811D911DA11D20D009F46894AB
:104B10003F912AE0269F11243019305D3193DEF653
:104B2000CF010895462F4770405D4193B3E00FD009
:104B3000C9F7F6CF462F4F70405D4A3318F0495DF4
:104B400031FD4052419302D0A9F7EACFB4E0A695D7
:104B50009795879577956795BA95C9F700976105F9
:104B6000710508959B01AC010A2E0694579547954F
:104B700037952795BA95C9F7620F731F841F951F44
:104B8000A01D0895F999FECF92BD81BDF89A99278D
:104B900080B50895A8E1B0E042E050E00C94F6251D
:104BA000262FF999FECF92BD81BDF89A019700B4E6
:104BB000021639F01FBA20BD0FB6F894FA9AF99A86
:104BC0000FBE08950396272F0E94D1250E94D0255D
:104BD000252F0E94D125242F0C94D1250196272F13
:104BE0000E94D1250C94D025DC01CB01FC01F99960
:104BF000FECF06C0F2BDE1BDF89A319600B40D9229
:104C000041505040B8F708952F923F924F925F92D3
:104C10006F927F928F929F92AF92BF92CF92DF92CC
:104C2000EF92FF920F931F93CF93DF93CDB7DEB731
:104C3000CA1BDB0B0FB6F894DEBF0FBECDBF0994C5
:104C40002A88398848885F846E847D848C849B841C
:104C5000AA84B984C884DF80EE80FD800C811B812A
:104C6000AA81B981CE0FD11D0FB6F894DEBF0FBE59
:104C7000CDBFED010895F894FFCF1E131E137613D8
:104C800076134B134B134B134B13C8135414631469
:104C90006314211521152A152A152C152A152A15F4
:104CA0002A152115211531152A152A1531159B2193
:104CB000C321AC22C321AC22F6211722AC226E22E2
:024CC0007A2256
:104CC200808182838485868788898A8B8C8D8E8F6A
:104CD2009091929394A0A1A2A3A4A5A6A7A8A9AAE1
:104CE200ABACADAEAFB0B1B2B3B4C0C1C2C3C4C558
:104CF200C6C7C8C9CACBCCCDCECFD0D1D2D3D400AF
:104D0200013E02003F02053F020021007F22000314
:104D1200F402A81CAD1CAB1CAC1CDA1C014C617962
:104D220065723A2044656661756C74004C61796500
:104D3200723A205261697365004C617965723A205A
:104D42004C6F776572004C617965723A2041646AF2
:104D5200757374004C617965723A20556E646566AC
:104D62002D256C640025647825642C206B25326423
:104D7200203A20256300202020206162636465665A
:104D82006768696A6B6C6D6E6F7071727374757639
:104D92007778797A3132333435363738393052458B
:104DA2004254202020202020203B27202C2E2F2060
:104DB2002020F6F7313332366697C63435000000CC
:0A4DC2000000000810181810080087
:00000001FF
